{
  "contractName": "PhotoAlbum",
  "abi": [
    {
      "inputs": [],
      "name": "photosLength",
      "outputs": [
        {
          "internalType": "uint256",
          "name": "",
          "type": "uint256"
        }
      ],
      "stateMutability": "view",
      "type": "function"
    },
    {
      "inputs": [
        {
          "internalType": "uint256",
          "name": "_id",
          "type": "uint256"
        },
        {
          "internalType": "string",
          "name": "_name",
          "type": "string"
        },
        {
          "internalType": "string",
          "name": "_picture",
          "type": "string"
        }
      ],
      "name": "publishPhoto",
      "outputs": [],
      "stateMutability": "nonpayable",
      "type": "function"
    },
    {
      "inputs": [
        {
          "internalType": "uint256",
          "name": "_id",
          "type": "uint256"
        }
      ],
      "name": "getPhoto",
      "outputs": [
        {
          "internalType": "string",
          "name": "name",
          "type": "string"
        },
        {
          "internalType": "string",
          "name": "picture",
          "type": "string"
        }
      ],
      "stateMutability": "view",
      "type": "function"
    },
    {
      "inputs": [
        {
          "internalType": "uint256",
          "name": "_id",
          "type": "uint256"
        }
      ],
      "name": "deletePhoto",
      "outputs": [],
      "stateMutability": "nonpayable",
      "type": "function"
    },
    {
      "inputs": [
        {
          "internalType": "uint256",
          "name": "_id",
          "type": "uint256"
        },
        {
          "internalType": "string",
          "name": "_name",
          "type": "string"
        },
        {
          "internalType": "string",
          "name": "_picture",
          "type": "string"
        }
      ],
      "name": "updatePhoto",
      "outputs": [],
      "stateMutability": "nonpayable",
      "type": "function"
    }
  ],
  "bytecode": "0x6080604052600060015534801561001557600080fd5b5061082f806100256000396000f3fe608060405234801561001057600080fd5b50600436106100575760003560e01c80631276f4e71461005c5780632f2467bd146101b857806375ad7c52146101e65780639ba4aacf14610204578063b6be128a14610360575b600080fd5b6101b66004803603606081101561007257600080fd5b81019080803590602001909291908035906020019064010000000081111561009957600080fd5b8201836020820111156100ab57600080fd5b803590602001918460018302840111640100000000831117156100cd57600080fd5b91908080601f016020809104026020016040519081016040528093929190818152602001838380828437600081840152601f19601f8201169050808301925050505050505091929192908035906020019064010000000081111561013057600080fd5b82018360208201111561014257600080fd5b8035906020019184600183028401116401000000008311171561016457600080fd5b91908080601f016020809104026020016040519081016040528093929190818152602001838380828437600081840152601f19601f820116905080830192505050505050509192919290505050610473565b005b6101e4600480360360208110156101ce57600080fd5b81019080803590602001909291905050506104cc565b005b6101ee610517565b6040518082815260200191505060405180910390f35b61035e6004803603606081101561021a57600080fd5b81019080803590602001909291908035906020019064010000000081111561024157600080fd5b82018360208201111561025357600080fd5b8035906020019184600183028401116401000000008311171561027557600080fd5b91908080601f016020809104026020016040519081016040528093929190818152602001838380828437600081840152601f19601f820116905080830192505050505050509192919290803590602001906401000000008111156102d857600080fd5b8201836020820111156102ea57600080fd5b8035906020019184600183028401116401000000008311171561030c57600080fd5b91908080601f016020809104026020016040519081016040528093929190818152602001838380828437600081840152601f19601f82011690508083019250505050505050919291929050505061051d565b005b61038c6004803603602081101561037657600080fd5b8101908080359060200190929190505050610598565b604051808060200180602001838103835285818151815260200191508051906020019080838360005b838110156103d05780820151818401526020810190506103b5565b50505050905090810190601f1680156103fd5780820380516001836020036101000a031916815260200191505b50838103825284818151815260200191508051906020019080838360005b8381101561043657808201518184015260208101905061041b565b50505050905090810190601f1680156104635780820380516001836020036101000a031916815260200191505b5094505050505060405180910390f35b81600080858152602001908152602001600020600001908051906020019061049c929190610706565b508060008085815260200190815260200160002060010190805190602001906104c6929190610706565b50505050565b600080828152602001908152602001600020600080820160006104ef9190610794565b6001820160006104ff9190610794565b50506001600081548092919060019003919050555050565b60015481565b6040518060400160405280838152602001828152506000808581526020019081526020016000206000820151816000019080519060200190610560929190610706565b50602082015181600101908051906020019061057d929190610706565b50905050600160008154809291906001019190505550505050565b606080600080848152602001908152602001600020600001600080858152602001908152602001600020600101818054600181600116156101000203166002900480601f01602080910402602001604051908101604052809291908181526020018280546001816001161561010002031660029004801561065a5780601f1061062f5761010080835404028352916020019161065a565b820191906000526020600020905b81548152906001019060200180831161063d57829003601f168201915b50505050509150808054600181600116156101000203166002900480601f0160208091040260200160405190810160405280929190818152602001828054600181600116156101000203166002900480156106f65780601f106106cb576101008083540402835291602001916106f6565b820191906000526020600020905b8154815290600101906020018083116106d957829003601f168201915b5050505050905091509150915091565b828054600181600116156101000203166002900490600052602060002090601f01602090048101928261073c5760008555610783565b82601f1061075557805160ff1916838001178555610783565b82800160010185558215610783579182015b82811115610782578251825591602001919060010190610767565b5b50905061079091906107dc565b5090565b50805460018160011615610100020316600290046000825580601f106107ba57506107d9565b601f0160209004906000526020600020908101906107d891906107dc565b5b50565b5b808211156107f55760008160009055506001016107dd565b509056fea2646970667358221220441f43c8bcaf78864dc8f61b1cc2d7992e571c6274556da1f5bf6cf81696c8f964736f6c63430007040033",
  "immutableReferences": {},
  "source": "pragma solidity ^0.7.4;\n\ncontract PhotoAlbum {\n    \n    mapping(uint => Photo) photos;\n    \n    struct Photo {\n        string name;\n        string picture;\n    }\n    \n    uint public photosLength = 0;\n    \n    // photos.length\n    function publishPhoto(uint _id, string memory _name, string memory _picture) external {\n        photos[_id] = Photo({ name: _name, picture: _picture});\n        photosLength++;\n    }\n    \n    function getPhoto(uint _id) view external returns(string memory name, string memory picture) {\n        return (photos[_id].name, photos[_id].picture);\n    }\n    \n    function deletePhoto(uint _id) external {\n        delete photos[_id];\n        photosLength--;\n    }\n    \n    function updatePhoto(uint _id, string memory _name, string memory _picture) external {\n        // Photo storage photo = photos[_id];\n        photos[_id].name = _name;\n        photos[_id].picture = _picture;\n    }\n}",
  "sourcePath": "/home/arturo/ETH/DApp/ig-app/contracts/PhotoAlbum.sol",
  "compiler": {
    "name": "solc",
    "version": "0.7.4+commit.3f05b770.Emscripten.clang"
  },
  "schemaVersion": "3.3.2",
  "updatedAt": "2020-11-28T16:22:09.368Z",
  "devdoc": {
    "kind": "dev",
    "methods": {},
    "version": 1
  },
  "userdoc": {
    "kind": "user",
    "methods": {},
    "version": 1
  }
}